:0400000054EF00F0C9
:100008004282FACF01F0FBCF02F0E9CF03F0EACF4A
:1000180004F0E1CF05F0E2CF06F0D9CF07F0DACF50
:1000280008F0F3CF09F0F4CF0AF0F6CF0BF0F7CFD2
:100038000CF0F8CF0DF0F5CF0EF042C00FF043C032
:1000480010F044C011F045C012F0F2BAF2A402D088
:10005800DFEC01F012C045F011C044F010C043F0CD
:100068000FC042F00EC0F5FF0DC0F8FF0CC0F7FF3F
:100078000BC0F6FF0AC0F4FF09C0F3FF08C0DAFF9F
:1000880007C0D9FF06C0E2FF05C0E1FF04C0EAFFD0
:1000980003C0E9FF02C0FBFF01C0FAFF4292110052
:1000A800C2EF01F029C019F02AC01AF0030E1C6E25
:1000B800E80E1B6E28EC01F01950216E21C013F0D8
:1000C800146A030E166EE80E156EF4EC01F0131E9A
:1000D800141E134A142A29501324196E2A50142066
:1000E8001A6E000E1C6E640E1B6E28EC01F019507F
:1000F800226E21C013F0146A030E166EE80E156EF8
:10010800F4EC01F02250640DF3501326F45014223D
:10011800131E141E134A142A29501324196E2A5028
:1001280014201A6E000E1C6E0A0E1B6E28EC01F0CD
:100138001950236E29C013F02AC014F0000E166E51
:100148000A0E156E6AEC01F01350246E000E2C6E28
:10015800000E2B6E2CBE06D02C500AE17D0E2B5CB7
:10016800D8B006D02D50CBEC00F02B4A2C2AF2D771
:10017800294A2A2A2ABE1200100E295C270E2A585C
:10018800D8A01200000E2A6E000E296E1200146EFE
:100198001450D8A413D08968000E8A6E080E8A6E8F
:1001A8002150010D310EF324D96E000EF420DA6EC1
:1001B800DF50896E010E21EC02F0142A1404D8A431
:1001C80013D08968000E8A6E040E8A6E2250010DC3
:1001D800310EF324D96E000EF420DA6EDF50896EEA
:1001E800010E21EC02F0142A020E1418D8A413D020
:1001F8008968000E8A6E020E8A6E2350010D310E38
:10020800F324D96E000EF420DA6EDF50896E010EE9
:1002180021EC02F0142A030E1418D8A412008968DD
:10022800000E8A6E010E8A6E2450010D310EF324E1
:10023800D96E000EF420DA6EDF50896E010E21ECC3
:1002480002F0000E146E1200000E1E6E1CAE06D0D8
:100258001B6C1C1ED8B01C2A010E1E6E1AAE06D0CE
:10026800196C1A1ED8B01A2A010E1E1A000E206E1A
:10027800000E1F6E1B501C10D8B41CD0010E1D6E32
:1002880004D0D8901B361C361D2A1CAEFAD7D8903D
:100298001F3620361B50195C1C501A58D8A005D0A0
:1002A8001B50195E1C501A5A1F80D8901C321B32E2
:1002B8001D2EEDD71E50D8B404D01F6C201ED8B008
:1002C800202A1FC019F020C01AF01200000E186E64
:1002D80014AE06D0136C141ED8B0142A010E186E72
:1002E80016AE04D0156C161ED8B0162A1550161066
:1002F800D8B418D0010E176E04D0D890153616361B
:10030800172A16AEFAD71550135C16501458D8A0F1
:1003180004D01550135E1650145AD8901632153260
:10032800172EF1D71850D8B404D0136C141ED8B0B7
:10033800142A13C013F014C014F01200000E8D6EAE
:10034800000E8C6E000E896E000E8A6E000E8B6E8B
:10035800070E966E000E926EF00E936E9468956876
:100368000F013B69FC0E3A6F3F0E396F070E3C6F69
:100378002F0E386F000E616EF18E1200520EF66E5F
:10038800040EF76E000EF86E00EE31F010EE0EF06F
:100398000900F5CFEEFFE550E150FAE100EE21F05B
:1003A800100EEE6AE806FDE142904292000EF86EE9
:1003B800000130EF02F0F29441C0D6FF3F504010E8
:1003C800D8B40CD001D80AD00500FA6E3F50FD6EA3
:1003D8004050FE6EF850FF6EFA501200302A12009C
:1003E80013501502F3CF17F0F4CF18F0135016027C
:1003F800F350182614501502F350182617C013F09E
:1004080018C014F01200000ED76E060ED66E060E37
:10041800416EF294F28A8A0E136E040E146E3EEC4C
:1004280002F0D00ED56E120043EC02F0A2EC01F0FF
:1004380037EC02F007EC02F01200136EC80E00D081
:10044800E82EFDD7132EFAD71200C0F9A4B099925E
:1004580082F880900804020118EC02F0F28EF28C07
:1004680056EC00F0FDD7400ED36E040ED26E800E0F
:100478009B6E120013C03FF014C040F01200D09ED3
:04048800120012004C
:020000040020DA
:08000000FFFFFFFFFFFFFFFF00
:020000040030CA
:0E000000FF281F3CFFBF85FF0FC00FE00F4021
:00000001FF
